{
  "address": "0xdEeb80EF8e35B2ABc5f311CcF0b7CE7EA5B54d9B",
  "abi": [
    {
      "anonymous": false,
      "inputs": [
        {
          "indexed": false,
          "internalType": "uint256",
          "name": "timestamp",
          "type": "uint256"
        },
        {
          "indexed": false,
          "internalType": "uint256",
          "name": "seigniorage",
          "type": "uint256"
        }
      ],
      "name": "BoardroomFunded",
      "type": "event"
    },
    {
      "anonymous": false,
      "inputs": [
        {
          "indexed": true,
          "internalType": "address",
          "name": "from",
          "type": "address"
        },
        {
          "indexed": false,
          "internalType": "uint256",
          "name": "jiraAmount",
          "type": "uint256"
        },
        {
          "indexed": false,
          "internalType": "uint256",
          "name": "bondAmount",
          "type": "uint256"
        }
      ],
      "name": "BoughtBonds",
      "type": "event"
    },
    {
      "anonymous": false,
      "inputs": [
        {
          "indexed": true,
          "internalType": "address",
          "name": "from",
          "type": "address"
        },
        {
          "indexed": false,
          "internalType": "uint256",
          "name": "bondAmount",
          "type": "uint256"
        }
      ],
      "name": "BurnedBonds",
      "type": "event"
    },
    {
      "anonymous": false,
      "inputs": [
        {
          "indexed": false,
          "internalType": "uint256",
          "name": "timestamp",
          "type": "uint256"
        },
        {
          "indexed": false,
          "internalType": "uint256",
          "name": "seigniorage",
          "type": "uint256"
        }
      ],
      "name": "DaoFundFunded",
      "type": "event"
    },
    {
      "anonymous": false,
      "inputs": [
        {
          "indexed": false,
          "internalType": "uint256",
          "name": "timestamp",
          "type": "uint256"
        },
        {
          "indexed": false,
          "internalType": "uint256",
          "name": "seigniorage",
          "type": "uint256"
        }
      ],
      "name": "DevFundFunded",
      "type": "event"
    },
    {
      "anonymous": false,
      "inputs": [
        {
          "indexed": true,
          "internalType": "address",
          "name": "executor",
          "type": "address"
        },
        {
          "indexed": false,
          "internalType": "uint256",
          "name": "at",
          "type": "uint256"
        }
      ],
      "name": "Initialized",
      "type": "event"
    },
    {
      "anonymous": false,
      "inputs": [
        {
          "indexed": true,
          "internalType": "address",
          "name": "from",
          "type": "address"
        },
        {
          "indexed": false,
          "internalType": "uint256",
          "name": "jiraAmount",
          "type": "uint256"
        },
        {
          "indexed": false,
          "internalType": "uint256",
          "name": "bondAmount",
          "type": "uint256"
        }
      ],
      "name": "RedeemedBonds",
      "type": "event"
    },
    {
      "anonymous": false,
      "inputs": [
        {
          "indexed": false,
          "internalType": "uint256",
          "name": "timestamp",
          "type": "uint256"
        },
        {
          "indexed": false,
          "internalType": "uint256",
          "name": "seigniorage",
          "type": "uint256"
        }
      ],
      "name": "TreasuryFunded",
      "type": "event"
    },
    {
      "inputs": [],
      "name": "PERIOD",
      "outputs": [
        {
          "internalType": "uint256",
          "name": "",
          "type": "uint256"
        }
      ],
      "stateMutability": "view",
      "type": "function"
    },
    {
      "inputs": [],
      "name": "allocateSeigniorage",
      "outputs": [],
      "stateMutability": "nonpayable",
      "type": "function"
    },
    {
      "inputs": [],
      "name": "bbond",
      "outputs": [
        {
          "internalType": "address",
          "name": "",
          "type": "address"
        }
      ],
      "stateMutability": "view",
      "type": "function"
    },
    {
      "inputs": [],
      "name": "boardroom",
      "outputs": [
        {
          "internalType": "address",
          "name": "",
          "type": "address"
        }
      ],
      "stateMutability": "view",
      "type": "function"
    },
    {
      "inputs": [
        {
          "internalType": "uint256",
          "name": "amount",
          "type": "uint256"
        }
      ],
      "name": "boardroomAllocateSeigniorage",
      "outputs": [],
      "stateMutability": "nonpayable",
      "type": "function"
    },
    {
      "inputs": [
        {
          "internalType": "address",
          "name": "_token",
          "type": "address"
        },
        {
          "internalType": "uint256",
          "name": "_amount",
          "type": "uint256"
        },
        {
          "internalType": "address",
          "name": "_to",
          "type": "address"
        }
      ],
      "name": "boardroomGovernanceRecoverUnsupported",
      "outputs": [],
      "stateMutability": "nonpayable",
      "type": "function"
    },
    {
      "inputs": [
        {
          "internalType": "uint256",
          "name": "_withdrawLockupEpochs",
          "type": "uint256"
        },
        {
          "internalType": "uint256",
          "name": "_rewardLockupEpochs",
          "type": "uint256"
        }
      ],
      "name": "boardroomSetLockUp",
      "outputs": [],
      "stateMutability": "nonpayable",
      "type": "function"
    },
    {
      "inputs": [
        {
          "internalType": "address",
          "name": "_operator",
          "type": "address"
        }
      ],
      "name": "boardroomSetOperator",
      "outputs": [],
      "stateMutability": "nonpayable",
      "type": "function"
    },
    {
      "inputs": [],
      "name": "bondDepletionFloorPercent",
      "outputs": [
        {
          "internalType": "uint256",
          "name": "",
          "type": "uint256"
        }
      ],
      "stateMutability": "view",
      "type": "function"
    },
    {
      "inputs": [],
      "name": "bootstrapEpochs",
      "outputs": [
        {
          "internalType": "uint256",
          "name": "",
          "type": "uint256"
        }
      ],
      "stateMutability": "view",
      "type": "function"
    },
    {
      "inputs": [],
      "name": "bootstrapSupplyExpansionPercent",
      "outputs": [
        {
          "internalType": "uint256",
          "name": "",
          "type": "uint256"
        }
      ],
      "stateMutability": "view",
      "type": "function"
    },
    {
      "inputs": [],
      "name": "bshare",
      "outputs": [
        {
          "internalType": "address",
          "name": "",
          "type": "address"
        }
      ],
      "stateMutability": "view",
      "type": "function"
    },
    {
      "inputs": [
        {
          "internalType": "uint256",
          "name": "_jiraAmount",
          "type": "uint256"
        },
        {
          "internalType": "uint256",
          "name": "targetPrice",
          "type": "uint256"
        }
      ],
      "name": "buyBonds",
      "outputs": [],
      "stateMutability": "nonpayable",
      "type": "function"
    },
    {
      "inputs": [],
      "name": "daoFund",
      "outputs": [
        {
          "internalType": "address",
          "name": "",
          "type": "address"
        }
      ],
      "stateMutability": "view",
      "type": "function"
    },
    {
      "inputs": [],
      "name": "daoFundSharedPercent",
      "outputs": [
        {
          "internalType": "uint256",
          "name": "",
          "type": "uint256"
        }
      ],
      "stateMutability": "view",
      "type": "function"
    },
    {
      "inputs": [],
      "name": "devFund",
      "outputs": [
        {
          "internalType": "address",
          "name": "",
          "type": "address"
        }
      ],
      "stateMutability": "view",
      "type": "function"
    },
    {
      "inputs": [],
      "name": "devFundSharedPercent",
      "outputs": [
        {
          "internalType": "uint256",
          "name": "",
          "type": "uint256"
        }
      ],
      "stateMutability": "view",
      "type": "function"
    },
    {
      "inputs": [],
      "name": "discountPercent",
      "outputs": [
        {
          "internalType": "uint256",
          "name": "",
          "type": "uint256"
        }
      ],
      "stateMutability": "view",
      "type": "function"
    },
    {
      "inputs": [],
      "name": "epoch",
      "outputs": [
        {
          "internalType": "uint256",
          "name": "",
          "type": "uint256"
        }
      ],
      "stateMutability": "view",
      "type": "function"
    },
    {
      "inputs": [],
      "name": "epochSupplyContractionLeft",
      "outputs": [
        {
          "internalType": "uint256",
          "name": "",
          "type": "uint256"
        }
      ],
      "stateMutability": "view",
      "type": "function"
    },
    {
      "inputs": [
        {
          "internalType": "uint256",
          "name": "",
          "type": "uint256"
        }
      ],
      "name": "excludedFromTotalSupply",
      "outputs": [
        {
          "internalType": "address",
          "name": "",
          "type": "address"
        }
      ],
      "stateMutability": "view",
      "type": "function"
    },
    {
      "inputs": [],
      "name": "getBondDiscountRate",
      "outputs": [
        {
          "internalType": "uint256",
          "name": "_rate",
          "type": "uint256"
        }
      ],
      "stateMutability": "view",
      "type": "function"
    },
    {
      "inputs": [],
      "name": "getBondPremiumRate",
      "outputs": [
        {
          "internalType": "uint256",
          "name": "_rate",
          "type": "uint256"
        }
      ],
      "stateMutability": "view",
      "type": "function"
    },
    {
      "inputs": [],
      "name": "getBurnableJiraLeft",
      "outputs": [
        {
          "internalType": "uint256",
          "name": "_burnableJiraLeft",
          "type": "uint256"
        }
      ],
      "stateMutability": "view",
      "type": "function"
    },
    {
      "inputs": [],
      "name": "getJiraCirculatingSupply",
      "outputs": [
        {
          "internalType": "uint256",
          "name": "",
          "type": "uint256"
        }
      ],
      "stateMutability": "view",
      "type": "function"
    },
    {
      "inputs": [],
      "name": "getJiraPrice",
      "outputs": [
        {
          "internalType": "uint256",
          "name": "jiraPrice",
          "type": "uint256"
        }
      ],
      "stateMutability": "view",
      "type": "function"
    },
    {
      "inputs": [],
      "name": "getJiraUpdatedPrice",
      "outputs": [
        {
          "internalType": "uint256",
          "name": "_jiraPrice",
          "type": "uint256"
        }
      ],
      "stateMutability": "view",
      "type": "function"
    },
    {
      "inputs": [],
      "name": "getRedeemableBonds",
      "outputs": [
        {
          "internalType": "uint256",
          "name": "_redeemableBonds",
          "type": "uint256"
        }
      ],
      "stateMutability": "view",
      "type": "function"
    },
    {
      "inputs": [],
      "name": "getReserve",
      "outputs": [
        {
          "internalType": "uint256",
          "name": "",
          "type": "uint256"
        }
      ],
      "stateMutability": "view",
      "type": "function"
    },
    {
      "inputs": [
        {
          "internalType": "contract IERC20",
          "name": "_token",
          "type": "address"
        },
        {
          "internalType": "uint256",
          "name": "_amount",
          "type": "uint256"
        },
        {
          "internalType": "address",
          "name": "_to",
          "type": "address"
        }
      ],
      "name": "governanceRecoverUnsupported",
      "outputs": [],
      "stateMutability": "nonpayable",
      "type": "function"
    },
    {
      "inputs": [
        {
          "internalType": "address",
          "name": "_jira",
          "type": "address"
        },
        {
          "internalType": "address",
          "name": "_bbond",
          "type": "address"
        },
        {
          "internalType": "address",
          "name": "_bshare",
          "type": "address"
        },
        {
          "internalType": "address",
          "name": "_jiraOracle",
          "type": "address"
        },
        {
          "internalType": "address",
          "name": "_boardroom",
          "type": "address"
        },
        {
          "internalType": "uint256",
          "name": "_startTime",
          "type": "uint256"
        }
      ],
      "name": "initialize",
      "outputs": [],
      "stateMutability": "nonpayable",
      "type": "function"
    },
    {
      "inputs": [],
      "name": "initialized",
      "outputs": [
        {
          "internalType": "bool",
          "name": "",
          "type": "bool"
        }
      ],
      "stateMutability": "view",
      "type": "function"
    },
    {
      "inputs": [],
      "name": "isInitialized",
      "outputs": [
        {
          "internalType": "bool",
          "name": "",
          "type": "bool"
        }
      ],
      "stateMutability": "view",
      "type": "function"
    },
    {
      "inputs": [],
      "name": "jira",
      "outputs": [
        {
          "internalType": "address",
          "name": "",
          "type": "address"
        }
      ],
      "stateMutability": "view",
      "type": "function"
    },
    {
      "inputs": [],
      "name": "jiraOracle",
      "outputs": [
        {
          "internalType": "address",
          "name": "",
          "type": "address"
        }
      ],
      "stateMutability": "view",
      "type": "function"
    },
    {
      "inputs": [],
      "name": "jiraPriceCeiling",
      "outputs": [
        {
          "internalType": "uint256",
          "name": "",
          "type": "uint256"
        }
      ],
      "stateMutability": "view",
      "type": "function"
    },
    {
      "inputs": [],
      "name": "jiraPriceOne",
      "outputs": [
        {
          "internalType": "uint256",
          "name": "",
          "type": "uint256"
        }
      ],
      "stateMutability": "view",
      "type": "function"
    },
    {
      "inputs": [],
      "name": "maxDebtRatioPercent",
      "outputs": [
        {
          "internalType": "uint256",
          "name": "",
          "type": "uint256"
        }
      ],
      "stateMutability": "view",
      "type": "function"
    },
    {
      "inputs": [],
      "name": "maxDiscountRate",
      "outputs": [
        {
          "internalType": "uint256",
          "name": "",
          "type": "uint256"
        }
      ],
      "stateMutability": "view",
      "type": "function"
    },
    {
      "inputs": [
        {
          "internalType": "uint256",
          "name": "",
          "type": "uint256"
        }
      ],
      "name": "maxExpansionTiers",
      "outputs": [
        {
          "internalType": "uint256",
          "name": "",
          "type": "uint256"
        }
      ],
      "stateMutability": "view",
      "type": "function"
    },
    {
      "inputs": [],
      "name": "maxPremiumRate",
      "outputs": [
        {
          "internalType": "uint256",
          "name": "",
          "type": "uint256"
        }
      ],
      "stateMutability": "view",
      "type": "function"
    },
    {
      "inputs": [],
      "name": "maxSupplyContractionPercent",
      "outputs": [
        {
          "internalType": "uint256",
          "name": "",
          "type": "uint256"
        }
      ],
      "stateMutability": "view",
      "type": "function"
    },
    {
      "inputs": [],
      "name": "maxSupplyExpansionPercent",
      "outputs": [
        {
          "internalType": "uint256",
          "name": "",
          "type": "uint256"
        }
      ],
      "stateMutability": "view",
      "type": "function"
    },
    {
      "inputs": [],
      "name": "mintingFactorForPayingDebt",
      "outputs": [
        {
          "internalType": "uint256",
          "name": "",
          "type": "uint256"
        }
      ],
      "stateMutability": "view",
      "type": "function"
    },
    {
      "inputs": [],
      "name": "nextEpochPoint",
      "outputs": [
        {
          "internalType": "uint256",
          "name": "",
          "type": "uint256"
        }
      ],
      "stateMutability": "view",
      "type": "function"
    },
    {
      "inputs": [],
      "name": "operator",
      "outputs": [
        {
          "internalType": "address",
          "name": "",
          "type": "address"
        }
      ],
      "stateMutability": "view",
      "type": "function"
    },
    {
      "inputs": [],
      "name": "premiumPercent",
      "outputs": [
        {
          "internalType": "uint256",
          "name": "",
          "type": "uint256"
        }
      ],
      "stateMutability": "view",
      "type": "function"
    },
    {
      "inputs": [],
      "name": "premiumThreshold",
      "outputs": [
        {
          "internalType": "uint256",
          "name": "",
          "type": "uint256"
        }
      ],
      "stateMutability": "view",
      "type": "function"
    },
    {
      "inputs": [],
      "name": "previousEpochJiraPrice",
      "outputs": [
        {
          "internalType": "uint256",
          "name": "",
          "type": "uint256"
        }
      ],
      "stateMutability": "view",
      "type": "function"
    },
    {
      "inputs": [
        {
          "internalType": "uint256",
          "name": "_bondAmount",
          "type": "uint256"
        },
        {
          "internalType": "uint256",
          "name": "targetPrice",
          "type": "uint256"
        }
      ],
      "name": "redeemBonds",
      "outputs": [],
      "stateMutability": "nonpayable",
      "type": "function"
    },
    {
      "inputs": [],
      "name": "seigniorageExpansionFloorPercent",
      "outputs": [
        {
          "internalType": "uint256",
          "name": "",
          "type": "uint256"
        }
      ],
      "stateMutability": "view",
      "type": "function"
    },
    {
      "inputs": [],
      "name": "seigniorageSaved",
      "outputs": [
        {
          "internalType": "uint256",
          "name": "",
          "type": "uint256"
        }
      ],
      "stateMutability": "view",
      "type": "function"
    },
    {
      "inputs": [
        {
          "internalType": "address",
          "name": "_boardroom",
          "type": "address"
        }
      ],
      "name": "setBoardroom",
      "outputs": [],
      "stateMutability": "nonpayable",
      "type": "function"
    },
    {
      "inputs": [
        {
          "internalType": "uint256",
          "name": "_bondDepletionFloorPercent",
          "type": "uint256"
        }
      ],
      "name": "setBondDepletionFloorPercent",
      "outputs": [],
      "stateMutability": "nonpayable",
      "type": "function"
    },
    {
      "inputs": [
        {
          "internalType": "uint256",
          "name": "_bootstrapEpochs",
          "type": "uint256"
        },
        {
          "internalType": "uint256",
          "name": "_bootstrapSupplyExpansionPercent",
          "type": "uint256"
        }
      ],
      "name": "setBootstrap",
      "outputs": [],
      "stateMutability": "nonpayable",
      "type": "function"
    },
    {
      "inputs": [
        {
          "internalType": "uint256",
          "name": "_discountPercent",
          "type": "uint256"
        }
      ],
      "name": "setDiscountPercent",
      "outputs": [],
      "stateMutability": "nonpayable",
      "type": "function"
    },
    {
      "inputs": [
        {
          "internalType": "address",
          "name": "_daoFund",
          "type": "address"
        },
        {
          "internalType": "uint256",
          "name": "_daoFundSharedPercent",
          "type": "uint256"
        },
        {
          "internalType": "address",
          "name": "_devFund",
          "type": "address"
        },
        {
          "internalType": "uint256",
          "name": "_devFundSharedPercent",
          "type": "uint256"
        }
      ],
      "name": "setExtraFunds",
      "outputs": [],
      "stateMutability": "nonpayable",
      "type": "function"
    },
    {
      "inputs": [
        {
          "internalType": "address",
          "name": "_jiraOracle",
          "type": "address"
        }
      ],
      "name": "setJiraOracle",
      "outputs": [],
      "stateMutability": "nonpayable",
      "type": "function"
    },
    {
      "inputs": [
        {
          "internalType": "uint256",
          "name": "_jiraPriceCeiling",
          "type": "uint256"
        }
      ],
      "name": "setJiraPriceCeiling",
      "outputs": [],
      "stateMutability": "nonpayable",
      "type": "function"
    },
    {
      "inputs": [
        {
          "internalType": "uint256",
          "name": "_maxDebtRatioPercent",
          "type": "uint256"
        }
      ],
      "name": "setMaxDebtRatioPercent",
      "outputs": [],
      "stateMutability": "nonpayable",
      "type": "function"
    },
    {
      "inputs": [
        {
          "internalType": "uint256",
          "name": "_maxDiscountRate",
          "type": "uint256"
        }
      ],
      "name": "setMaxDiscountRate",
      "outputs": [],
      "stateMutability": "nonpayable",
      "type": "function"
    },
    {
      "inputs": [
        {
          "internalType": "uint8",
          "name": "_index",
          "type": "uint8"
        },
        {
          "internalType": "uint256",
          "name": "_value",
          "type": "uint256"
        }
      ],
      "name": "setMaxExpansionTiersEntry",
      "outputs": [
        {
          "internalType": "bool",
          "name": "",
          "type": "bool"
        }
      ],
      "stateMutability": "nonpayable",
      "type": "function"
    },
    {
      "inputs": [
        {
          "internalType": "uint256",
          "name": "_maxPremiumRate",
          "type": "uint256"
        }
      ],
      "name": "setMaxPremiumRate",
      "outputs": [],
      "stateMutability": "nonpayable",
      "type": "function"
    },
    {
      "inputs": [
        {
          "internalType": "uint256",
          "name": "_maxSupplyContractionPercent",
          "type": "uint256"
        }
      ],
      "name": "setMaxSupplyContractionPercent",
      "outputs": [],
      "stateMutability": "nonpayable",
      "type": "function"
    },
    {
      "inputs": [
        {
          "internalType": "uint256",
          "name": "_maxSupplyExpansionPercent",
          "type": "uint256"
        }
      ],
      "name": "setMaxSupplyExpansionPercents",
      "outputs": [],
      "stateMutability": "nonpayable",
      "type": "function"
    },
    {
      "inputs": [
        {
          "internalType": "uint256",
          "name": "_mintingFactorForPayingDebt",
          "type": "uint256"
        }
      ],
      "name": "setMintingFactorForPayingDebt",
      "outputs": [],
      "stateMutability": "nonpayable",
      "type": "function"
    },
    {
      "inputs": [
        {
          "internalType": "address",
          "name": "_operator",
          "type": "address"
        }
      ],
      "name": "setOperator",
      "outputs": [],
      "stateMutability": "nonpayable",
      "type": "function"
    },
    {
      "inputs": [
        {
          "internalType": "uint256",
          "name": "_premiumPercent",
          "type": "uint256"
        }
      ],
      "name": "setPremiumPercent",
      "outputs": [],
      "stateMutability": "nonpayable",
      "type": "function"
    },
    {
      "inputs": [
        {
          "internalType": "uint256",
          "name": "_premiumThreshold",
          "type": "uint256"
        }
      ],
      "name": "setPremiumThreshold",
      "outputs": [],
      "stateMutability": "nonpayable",
      "type": "function"
    },
    {
      "inputs": [
        {
          "internalType": "uint8",
          "name": "_index",
          "type": "uint8"
        },
        {
          "internalType": "uint256",
          "name": "_value",
          "type": "uint256"
        }
      ],
      "name": "setSupplyTiersEntry",
      "outputs": [
        {
          "internalType": "bool",
          "name": "",
          "type": "bool"
        }
      ],
      "stateMutability": "nonpayable",
      "type": "function"
    },
    {
      "inputs": [],
      "name": "startTime",
      "outputs": [
        {
          "internalType": "uint256",
          "name": "",
          "type": "uint256"
        }
      ],
      "stateMutability": "view",
      "type": "function"
    },
    {
      "inputs": [
        {
          "internalType": "uint256",
          "name": "",
          "type": "uint256"
        }
      ],
      "name": "supplyTiers",
      "outputs": [
        {
          "internalType": "uint256",
          "name": "",
          "type": "uint256"
        }
      ],
      "stateMutability": "view",
      "type": "function"
    }
  ],
  "transactionHash": "0x2067b185a9928b293939ac94027c789eef00f6e6c6a1d7177a05f2569593d429",
  "args": [],
  "numDeployments": 2,
  "solcInputHash": "09272786aa9b7d4ba6555ce839a0b675",
  "bytecode": "0x6001805460ff60a01b191690556000600381905560045560c060405273b7e1e341b2cbcc7d1edf4dc6e5e962ae5c621ca560809081527304b79c851ed1a36549c6151189c79ec0eabca74560a0526200005d90600590600262000072565b503480156200006b57600080fd5b50620000fd565b828054828255906000526020600020908101928215620000ca579160200282015b82811115620000ca57825182546001600160a01b0319166001600160a01b0390911617825560209092019160019091019062000093565b50620000d8929150620000dc565b5090565b5b80821115620000d85780546001600160a01b0319168155600101620000dd565b6146ab806200010d6000396000f3fe608060405234801561001057600080fd5b50600436106104285760003560e01c80638c664db61161022b578063bcc81f1911610130578063da3ed419116100b8578063f14698de11610087578063f14698de1461099b578063f6c85376146109a3578063f8cd4d72146109ab578063fcb6f008146109ce578063fd41f1a1146109d657610428565b8063da3ed4191461097b578063dbf88c3614610983578063e90b24541461098b578063ede138b61461099357610428565b8063c8f987f3116100ff578063c8f987f314610920578063ca0378a614610928578063cecce38e14610930578063d4b149441461094d578063d98f24951461097357610428565b8063bcc81f19146108b0578063be1e81b2146108ea578063c5967c2614610910578063c8412d021461091857610428565b8063a0487eea116101b3578063b06d157311610182578063b06d15731461084c578063b3ab15fb14610854578063b3ffc7771461087a578063b4d1d795146108a0578063b8a878f9146108a857610428565b8063a0487eea146107b6578063a204452b146107d3578063a3ec30fe146107f0578063b06ce14a1461082657610428565b8063940e6064116101fa578063940e60641461070257806395b6ef0c1461072857806398b762a11461077457806399820025146107915780639beb31df146107ae57610428565b80638c664db6146106b25780638d934f74146106cf578063900cf0cf146106d757806391bbfed5146106df57610428565b80634390d2a8116103315780635b756179116102b957806378e979251161028857806378e97925146106605780637a38a01f1461066857806381d11eaf1461068557806382cad8381461068d578063874106cc146106aa57610428565b80635b756179146106405780635e02c51e146106485780636764ff511461065057806372c054f91461065857610428565b806355ebdeef1161030057806355ebdeef14610603578063570ca7351461060b578063591663e11461061357806359bf5d39146106305780635a0fc79c1461063857610428565b80634390d2a814610585578063499f3f191461058d57806354575af4146105aa57806354f04a11146105e057610428565b8063158ef93e116103b45780632e9c7b65116103835780632e9c7b6514610548578063391928c914610550578063392e53cd146105585780634013a08e1461056057806340af7ba51461056857610428565b8063158ef93e146104f857806322f832cd1461051457806329a67e871461051c57806329ef19191461054057610428565b80630cf60175116103fb5780630cf60175146104a05780630db7eb0b146104a85780630ff6c844146104b0578063118ebbf9146104b8578063154ec2db146104db57610428565b806301a937831461042d57806303be7e761461044c57806304e5c7b1146104665780630b5bcec714610483575b600080fd5b61044a6004803603602081101561044357600080fd5b50356109de565b005b610454610a8f565b60408051918252519081900360200190f35b61044a6004803603602081101561047c57600080fd5b5035610a95565b61044a6004803603602081101561049957600080fd5b5035610b64565b610454610c00565b610454610cb2565b610454610d54565b61044a600480360360408110156104ce57600080fd5b5080359060200135610e9d565b61044a600480360360208110156104f157600080fd5b50356114f8565b61050061159d565b604080519115158252519081900360200190f35b6104546115ad565b6105246115b3565b604080516001600160a01b039092168252519081900360200190f35b6104546115c2565b6104546115c8565b6104546115ce565b6105006115d4565b6104546115e4565b61044a6004803603602081101561057e57600080fd5b50356115ea565b61052461168f565b61044a600480360360208110156105a357600080fd5b503561169e565b61044a600480360360608110156105c057600080fd5b506001600160a01b0381358116916020810135916040909101351661173b565b61044a600480360360408110156105f657600080fd5b5080359060200135611880565b610454611fbd565b610524611fc3565b61044a6004803603602081101561062957600080fd5b5035611fd2565b610454612074565b61045461207a565b61044a612080565b61052461272e565b61045461273d565b610454612743565b6104546127f9565b61044a6004803603602081101561067e57600080fd5b50356127ff565b6104546128b9565b610524600480360360208110156106a357600080fd5b50356128bf565b6104546128e6565b61044a600480360360208110156106c857600080fd5b50356128ec565b61052461298e565b61045461299d565b61044a600480360360408110156106f557600080fd5b50803590602001356129a3565b6105006004803603604081101561071857600080fd5b5060ff8135169060200135612a9b565b61044a600480360360c081101561073e57600080fd5b506001600160a01b0381358116916020810135821691604082013581169160608101358216916080820135169060a00135612bb7565b61044a6004803603602081101561078a57600080fd5b5035612ea5565b610454600480360360208110156107a757600080fd5b5035612ef3565b610524612f11565b610454600480360360208110156107cc57600080fd5b5035612f20565b61044a600480360360208110156107e957600080fd5b5035612f2d565b61044a6004803603606081101561080657600080fd5b506001600160a01b03813581169160208101359160409091013516612f7b565b61044a6004803603602081101561083c57600080fd5b50356001600160a01b031661303e565b6104546130d5565b61044a6004803603602081101561086a57600080fd5b50356001600160a01b03166131b2565b61044a6004803603602081101561089057600080fd5b50356001600160a01b031661321d565b610454613288565b61045461328e565b61044a600480360360808110156108c657600080fd5b506001600160a01b0381358116916020810135916040820135169060600135613294565b61044a6004803603602081101561090057600080fd5b50356001600160a01b0316613429565b610454613494565b6104546134be565b6104546134c4565b6104546134ca565b61044a6004803603602081101561094657600080fd5b503561352c565b6105006004803603604081101561096357600080fd5b5060ff81351690602001356135cd565b6104546136c7565b6104546136cd565b6105246136d3565b6104546136e2565b6105246136e8565b6104546136f7565b6104546136fd565b61044a600480360360408110156109c157600080fd5b5080359060200135613703565b6104546137bc565b6104546137c2565b6001546001600160a01b03163314610a275760405162461bcd60e51b81526004018080602001828103825260248152602001806145186024913960400191505060405180910390fd5b600954604080516397ffe1d760e01b81526004810184905290516001600160a01b03909216916397ffe1d79160248082019260009290919082900301818387803b158015610a7457600080fd5b505af1158015610a88573d6000803e3d6000fd5b5050505050565b60215481565b6001546001600160a01b03163314610ade5760405162461bcd60e51b81526004018080602001828103825260248152602001806145186024913960400191505060405180910390fd5b600c54811015610b1f5760405162461bcd60e51b815260040180806020018281038252602a81526020018061461e602a913960400191505060405180910390fd5b6096811115610b5f5760405162461bcd60e51b81526004018080602001828103825260248152602001806143de6024913960400191505060405180910390fd5b601b55565b6001546001600160a01b03163314610bad5760405162461bcd60e51b81526004018080602001828103825260248152602001806145186024913960400191505060405180910390fd5b600a8110158015610bc057506103e88111155b610bfb5760405162461bcd60e51b81526004018080602001828103825260288152602001806144c76028913960400191505060405180910390fd5b601055565b600080610c0b6130d5565b9050600b548111610cae57601a54610c2757600b549150610cae565b6000610c5082610c4a670de0b6b3a7640000600b546138c790919063ffffffff16565b90613927565b90506000610c7b612710610c4a601a54610c75600b548761398e90919063ffffffff16565b906138c7565b600b54909150610c8b90826139eb565b93506000601854118015610ca0575060185484115b15610cab5760185493505b50505b5090565b600080610cbd6130d5565b9050600c54811115610cae576000610ce76064610c4a601b54600b546138c790919063ffffffff16565b9050808210610d49576000610d13612710610c4a601c54610c75600b548861398e90919063ffffffff16565b600b54909150610d2390826139eb565b93506000601954118015610d38575060195484115b15610d435760195493505b50610d4f565b600b5492505b505090565b600654604080516318160ddd60e01b815290516000926001600160a01b031691839183916318160ddd916004808301926020929190829003018186803b158015610d9d57600080fd5b505afa158015610db1573d6000803e3d6000fd5b505050506040513d6020811015610dc757600080fd5b505190506000805b60055460ff82161015610e8957610e7f846001600160a01b03166370a0823160058460ff1681548110610dfe57fe5b60009182526020918290200154604080516001600160e01b031960e086901b1681526001600160a01b0390921660048301525160248083019392829003018186803b158015610e4c57600080fd5b505afa158015610e60573d6000803e3d6000fd5b505050506040513d6020811015610e7657600080fd5b505183906139eb565b9150600101610dcf565b50610e94828261398e565b93505050505b90565b610ea5613a45565b15610ee15760405162461bcd60e51b81526004018080602001828103825260268152602001806145666026913960400191505060405180910390fd5b610ee9613a64565b15610f255760405162461bcd60e51b81526004018080602001828103825260268152602001806145666026913960400191505060405180910390fd5b600254421015610f78576040805162461bcd60e51b8152602060048201526019602482015278151c99585cdd5c9e4e881b9bdd081cdd185c9d1959081e595d603a1b604482015290519081900360640190fd5b6006546040805163570ca73560e01b8152905130926001600160a01b03169163570ca735916004808301926020929190829003018186803b158015610fbc57600080fd5b505afa158015610fd0573d6000803e3d6000fd5b505050506040513d6020811015610fe657600080fd5b50516001600160a01b031614801561107457506007546040805163570ca73560e01b8152905130926001600160a01b03169163570ca735916004808301926020929190829003018186803b15801561103d57600080fd5b505afa158015611051573d6000803e3d6000fd5b505050506040513d602081101561106757600080fd5b50516001600160a01b0316145b80156110f657506008546040805163570ca73560e01b8152905130926001600160a01b03169163570ca735916004808301926020929190829003018186803b1580156110bf57600080fd5b505afa1580156110d3573d6000803e3d6000fd5b505050506040513d60208110156110e957600080fd5b50516001600160a01b0316145b801561117857506009546040805163570ca73560e01b8152905130926001600160a01b03169163570ca735916004808301926020929190829003018186803b15801561114157600080fd5b505afa158015611155573d6000803e3d6000fd5b505050506040513d602081101561116b57600080fd5b50516001600160a01b0316145b6111c9576040805162461bcd60e51b815260206004820152601e60248201527f54726561737572793a206e656564206d6f7265207065726d697373696f6e0000604482015290519081900360640190fd5b600082116112085760405162461bcd60e51b815260040180806020018281038252602e81526020018061437a602e913960400191505060405180910390fd5b60006112126130d5565b9050818114611268576040805162461bcd60e51b815260206004820152601a60248201527f54726561737572793a204a495241207072696365206d6f766564000000000000604482015290519081900360640190fd5b600c5481116112a85760405162461bcd60e51b815260040180806020018281038252603281526020018061458c6032913960400191505060405180910390fd5b60006112b2610cb2565b905060008111611309576040805162461bcd60e51b815260206004820152601b60248201527f54726561737572793a20696e76616c696420626f6e6420726174650000000000604482015290519081900360640190fd5b600061131f655af3107a4000610c4a87856138c7565b600654604080516370a0823160e01b8152306004820152905192935083926001600160a01b03909216916370a0823191602480820192602092909190829003018186803b15801561136f57600080fd5b505afa158015611383573d6000803e3d6000fd5b505050506040513d602081101561139957600080fd5b505110156113d85760405162461bcd60e51b81526004018080602001828103825260258152602001806144286025913960400191505060405180910390fd5b6113f06113e7600d5483613a83565b600d549061398e565b600d556007546040805163079cc67960e41b81523360048201526024810188905290516001600160a01b03909216916379cc67909160448082019260009290919082900301818387803b15801561144657600080fd5b505af115801561145a573d6000803e3d6000fd5b505060065461147692506001600160a01b031690503383613a99565b61147e613aeb565b6040805182815260208101879052815133927f51e0d16595cabc591e64da08e45bb223577e5b9a39cd947b4ddc3472b2dd8878928290030190a25050436000908152602081815260408083203284529091528082208054600160ff1991821681179092553384529190922080549091169091179055505050565b6001546001600160a01b031633146115415760405162461bcd60e51b81526004018080602001828103825260248152602001806145186024913960400191505060405180910390fd5b614e20811115611598576040805162461bcd60e51b815260206004820152601d60248201527f5f646973636f756e7450657263656e74206973206f7665722032303025000000604482015290519081900360640190fd5b601a55565b600154600160a01b900460ff1681565b60125481565b600a546001600160a01b031681565b601a5481565b60195481565b60175481565b600154600160a01b900460ff1690565b601d5481565b6001546001600160a01b031633146116335760405162461bcd60e51b81526004018080602001828103825260248152602001806145186024913960400191505060405180910390fd5b614e2081111561168a576040805162461bcd60e51b815260206004820152601c60248201527f5f7072656d69756d50657263656e74206973206f766572203230302500000000604482015290519081900360640190fd5b601c55565b6020546001600160a01b031681565b6001546001600160a01b031633146116e75760405162461bcd60e51b81526004018080602001828103825260248152602001806145186024913960400191505060405180910390fd5b61271081101580156116fb5750614e208111155b6117365760405162461bcd60e51b815260040180806020018281038252602981526020018061449e6029913960400191505060405180910390fd5b601d55565b6001546001600160a01b031633146117845760405162461bcd60e51b81526004018080602001828103825260248152602001806145186024913960400191505060405180910390fd5b6006546001600160a01b03848116911614156117d0576040805162461bcd60e51b815260206004808301919091526024820152636a69726160e01b604482015290519081900360640190fd5b6007546001600160a01b038481169116141561181c576040805162461bcd60e51b81526020600480830191909152602482015263189bdb9960e21b604482015290519081900360640190fd5b6008546001600160a01b0384811691161415611867576040805162461bcd60e51b8152602060048201526005602482015264736861726560d81b604482015290519081900360640190fd5b61187b6001600160a01b0384168284613a99565b505050565b611888613a45565b156118c45760405162461bcd60e51b81526004018080602001828103825260268152602001806145666026913960400191505060405180910390fd5b6118cc613a64565b156119085760405162461bcd60e51b81526004018080602001828103825260268152602001806145666026913960400191505060405180910390fd5b60025442101561195b576040805162461bcd60e51b8152602060048201526019602482015278151c99585cdd5c9e4e881b9bdd081cdd185c9d1959081e595d603a1b604482015290519081900360640190fd5b6006546040805163570ca73560e01b8152905130926001600160a01b03169163570ca735916004808301926020929190829003018186803b15801561199f57600080fd5b505afa1580156119b3573d6000803e3d6000fd5b505050506040513d60208110156119c957600080fd5b50516001600160a01b0316148015611a5757506007546040805163570ca73560e01b8152905130926001600160a01b03169163570ca735916004808301926020929190829003018186803b158015611a2057600080fd5b505afa158015611a34573d6000803e3d6000fd5b505050506040513d6020811015611a4a57600080fd5b50516001600160a01b0316145b8015611ad957506008546040805163570ca73560e01b8152905130926001600160a01b03169163570ca735916004808301926020929190829003018186803b158015611aa257600080fd5b505afa158015611ab6573d6000803e3d6000fd5b505050506040513d6020811015611acc57600080fd5b50516001600160a01b0316145b8015611b5b57506009546040805163570ca73560e01b8152905130926001600160a01b03169163570ca735916004808301926020929190829003018186803b158015611b2457600080fd5b505afa158015611b38573d6000803e3d6000fd5b505050506040513d6020811015611b4e57600080fd5b50516001600160a01b0316145b611bac576040805162461bcd60e51b815260206004820152601e60248201527f54726561737572793a206e656564206d6f7265207065726d697373696f6e0000604482015290519081900360640190fd5b60008211611beb5760405162461bcd60e51b815260040180806020018281038252603081526020018061446e6030913960400191505060405180910390fd5b6000611bf56130d5565b9050818114611c4b576040805162461bcd60e51b815260206004820152601a60248201527f54726561737572793a204a495241207072696365206d6f766564000000000000604482015290519081900360640190fd5b600b548110611c8b5760405162461bcd60e51b815260040180806020018281038252603281526020018061458c6032913960400191505060405180910390fd5b600454831115611ccc5760405162461bcd60e51b815260040180806020018281038252602a8152602001806145f4602a913960400191505060405180910390fd5b6000611cd6610c00565b905060008111611d2d576040805162461bcd60e51b815260206004820152601b60248201527f54726561737572793a20696e76616c696420626f6e6420726174650000000000604482015290519081900360640190fd5b6000611d43655af3107a4000610c4a87856138c7565b90506000611d4f610d54565b90506000611dd783600760009054906101000a90046001600160a01b03166001600160a01b03166318160ddd6040518163ffffffff1660e01b815260040160206040518083038186803b158015611da557600080fd5b505afa158015611db9573d6000803e3d6000fd5b505050506040513d6020811015611dcf57600080fd5b5051906139eb565b9050611df4612710610c4a601454856138c790919063ffffffff16565b811115611e3e576040805162461bcd60e51b81526020600482015260136024820152726f766572206d6178206465627420726174696f60681b604482015290519081900360640190fd5b6006546040805163079cc67960e41b8152336004820152602481018a905290516001600160a01b03909216916379cc67909160448082019260009290919082900301818387803b158015611e9157600080fd5b505af1158015611ea5573d6000803e3d6000fd5b5050600754604080516340c10f1960e01b81523360048201526024810188905290516001600160a01b0390921693506340c10f1992506044808201926020929091908290030181600087803b158015611efd57600080fd5b505af1158015611f11573d6000803e3d6000fd5b505050506040513d6020811015611f2757600080fd5b5050600454611f36908861398e565b600455611f41613aeb565b6040805188815260208101859052815133927f73017f1b70789e2e66759eeb3c7ec11f59e6eedb55d921cfaec5410dd42a4799928290030190a25050436000908152602081815260408083203284529091528082208054600160ff19918216811790925533845291909220805490911690911790555050505050565b601f5481565b6001546001600160a01b031681565b6001546001600160a01b0316331461201b5760405162461bcd60e51b81526004018080602001828103825260248152602001806145186024913960400191505060405180910390fd5b6103e8811015801561202f57506127108111155b61206f576040805162461bcd60e51b815260206004820152600c60248201526b6f7574206f662072616e676560a01b604482015290519081900360640190fd5b601455565b600d5490565b600d5481565b612088613a45565b156120c45760405162461bcd60e51b81526004018080602001828103825260268152602001806145666026913960400191505060405180910390fd5b6120cc613a64565b156121085760405162461bcd60e51b81526004018080602001828103825260268152602001806145666026913960400191505060405180910390fd5b60025442101561215b576040805162461bcd60e51b8152602060048201526019602482015278151c99585cdd5c9e4e881b9bdd081cdd185c9d1959081e595d603a1b604482015290519081900360640190fd5b612163613494565b4210156121b7576040805162461bcd60e51b815260206004820152601860248201527f54726561737572793a206e6f74206f70656e6564207965740000000000000000604482015290519081900360640190fd5b6006546040805163570ca73560e01b8152905130926001600160a01b03169163570ca735916004808301926020929190829003018186803b1580156121fb57600080fd5b505afa15801561220f573d6000803e3d6000fd5b505050506040513d602081101561222557600080fd5b50516001600160a01b03161480156122b357506007546040805163570ca73560e01b8152905130926001600160a01b03169163570ca735916004808301926020929190829003018186803b15801561227c57600080fd5b505afa158015612290573d6000803e3d6000fd5b505050506040513d60208110156122a657600080fd5b50516001600160a01b0316145b801561233557506008546040805163570ca73560e01b8152905130926001600160a01b03169163570ca735916004808301926020929190829003018186803b1580156122fe57600080fd5b505afa158015612312573d6000803e3d6000fd5b505050506040513d602081101561232857600080fd5b50516001600160a01b0316145b80156123b757506009546040805163570ca73560e01b8152905130926001600160a01b03169163570ca735916004808301926020929190829003018186803b15801561238057600080fd5b505afa158015612394573d6000803e3d6000fd5b505050506040513d60208110156123aa57600080fd5b50516001600160a01b0316145b612408576040805162461bcd60e51b815260206004820152601e60248201527f54726561737572793a206e656564206d6f7265207065726d697373696f6e0000604482015290519081900360640190fd5b612410613aeb565b6124186130d5565b601755600d546000906124339061242d610d54565b9061398e565b905060155460035410156124695761246461245f612710610c4a601654856138c790919063ffffffff16565b613b4f565b6126b2565b600c5460175411156126b257600754604080516318160ddd60e01b815290516000926001600160a01b0316916318160ddd916004808301926020929190829003018186803b1580156124ba57600080fd5b505afa1580156124ce573d6000803e3d6000fd5b505050506040513d60208110156124e457600080fd5b5051600b546017549192506000916124fb9161398e565b90506000806000612515655af3107a4000610c7588613e8f565b905080841115612523578093505b61253e612710610c4a601154886138c790919063ffffffff16565b600d54106125615761255a655af3107a4000610c4a88876138c7565b91506125cb565b6000612577655af3107a4000610c4a89886138c7565b9050612594612710610c4a601254846138c790919063ffffffff16565b92506125a0818461398e565b601d54909450156125c9576125c6612710610c4a601d54876138c790919063ffffffff16565b93505b505b81156125da576125da82613b4f565b82156126ac57600d546125ed90846139eb565b600d55600654604080516340c10f1960e01b81523060048201526024810186905290516001600160a01b03909216916340c10f19916044808201926020929091908290030181600087803b15801561264457600080fd5b505af1158015612658573d6000803e3d6000fd5b505050506040513d602081101561266e57600080fd5b5050604080514281526020810185905281517ff705142bf09f04297640495ddf7c59b7fd6f51894c5aea9602d631cf05f0efc2929181900390910190a15b50505050505b506003546126c19060016139eb565b600355600c546126cf6130d5565b116126ed576126e8612710610c4a601354610c75610d54565b6126f0565b60005b600455436000908152602081815260408083203284529091528082208054600160ff1991821681179092553384529190922080549091169091179055565b6009546001600160a01b031681565b600b5481565b60008061274e6130d5565b9050600c54811115610cae57600654604080516370a0823160e01b815230600482015290516000926001600160a01b0316916370a08231916024808301926020929190829003018186803b1580156127a557600080fd5b505afa1580156127b9573d6000803e3d6000fd5b505050506040513d60208110156127cf57600080fd5b5051905060006127dd610cb2565b90508015610cab57610e9481610c4a84655af3107a40006138c7565b60025481565b6001546001600160a01b031633146128485760405162461bcd60e51b81526004018080602001828103825260248152602001806145186024913960400191505060405180910390fd5b600b54811015801561287457506128706064610c4a6078600b546138c790919063ffffffff16565b8111155b6128b4576040805162461bcd60e51b815260206004820152600c60248201526b6f7574206f662072616e676560a01b604482015290519081900360640190fd5b600c55565b60115481565b600581815481106128cc57fe5b6000918252602090912001546001600160a01b0316905081565b60165481565b6001546001600160a01b031633146129355760405162461bcd60e51b81526004018080602001828103825260248152602001806145186024913960400191505060405180910390fd5b6101f4811015801561294957506127108111155b612989576040805162461bcd60e51b815260206004820152600c60248201526b6f7574206f662072616e676560a01b604482015290519081900360640190fd5b601155565b601e546001600160a01b031681565b60035481565b6001546001600160a01b031633146129ec5760405162461bcd60e51b81526004018080602001828103825260248152602001806145186024913960400191505060405180910390fd5b6078821115612a42576040805162461bcd60e51b815260206004820152601e60248201527f5f626f6f74737472617045706f6368733a206f7574206f662072616e67650000604482015290519081900360640190fd5b60648110158015612a5557506103e88111155b612a905760405162461bcd60e51b815260040180806020018281038252602e815260200180614648602e913960400191505060405180910390fd5b601591909155601655565b6001546000906001600160a01b03163314612ae75760405162461bcd60e51b81526004018080602001828103825260248152602001806145186024913960400191505060405180910390fd5b60098360ff1610612b295760405162461bcd60e51b81526004018080602001828103825260298152602001806144ef6029913960400191505060405180910390fd5b60ff831615612b5b57600e6001840360ff1681548110612b4557fe5b90600052602060002001548211612b5b57600080fd5b60088360ff161015612b9057600e8360010160ff1681548110612b7a57fe5b90600052602060002001548210612b9057600080fd5b81600e8460ff1681548110612ba157fe5b6000918252602090912001555060015b92915050565b600154600160a01b900460ff1615612c16576040805162461bcd60e51b815260206004820152601d60248201527f54726561737572793a20616c726561647920696e697469616c697a6564000000604482015290519081900360640190fd5b600680546001600160a01b03199081166001600160a01b0389811691909117909255600780548216888416179055600880548216878416179055600a80548216868416179055600980549091169184169190911790556002819055670de0b6b3a7640000600b819055612c9190606490610c4a9060656138c7565b600c556040805161012081018252600081526969e10de76676d0800000602082015269d3c21bcecceda1000000918101919091526a013da329b633647180000060608201526a01a784379d99db4200000060808201526a0422ca8b0a00a42500000060a08201526a084595161401484a00000060c08201526a108b2a2c2802909400000060e08201526a295be96e64066972000000610100820152612d3a90600e9060096142cd565b5060408051610120810182526101c28152610190602082015261015e9181019190915261012c606082015260fa608082015260c860a0820152609660c0820152607d60e08201526064610100820152612d9790600f906009614323565b50610190601055612710601155610dac60125561012c601355611194601455606e601b55611b58601c5560006015556101c2601655600654604080516370a0823160e01b815230600482015290516001600160a01b03909216916370a0823191602480820192602092909190829003018186803b158015612e1757600080fd5b505afa158015612e2b573d6000803e3d6000fd5b505050506040513d6020811015612e4157600080fd5b5051600d55600180546001600160a01b031960ff60a01b19909116600160a01b1716339081179091556040805143815290517f25ff68dd81b34665b5ba7e553ee5511bf6812e12adb4a7e2c0d9e26b3099ce799181900360200190a2505050505050565b6001546001600160a01b03163314612eee5760405162461bcd60e51b81526004018080602001828103825260248152602001806145186024913960400191505060405180910390fd5b601855565b600e8181548110612f0057fe5b600091825260209091200154905081565b6008546001600160a01b031681565b600f8181548110612f0057fe5b6001546001600160a01b03163314612f765760405162461bcd60e51b81526004018080602001828103825260248152602001806145186024913960400191505060405180910390fd5b601955565b6001546001600160a01b03163314612fc45760405162461bcd60e51b81526004018080602001828103825260248152602001806145186024913960400191505060405180910390fd5b60095460408051631515d6bd60e21b81526001600160a01b038681166004830152602482018690528481166044830152915191909216916354575af491606480830192600092919082900301818387803b15801561302157600080fd5b505af1158015613035573d6000803e3d6000fd5b50505050505050565b6001546001600160a01b031633146130875760405162461bcd60e51b81526004018080602001828103825260248152602001806145186024913960400191505060405180910390fd5b6009546040805163b3ab15fb60e01b81526001600160a01b0384811660048301529151919092169163b3ab15fb91602480830192600092919082900301818387803b158015610a7457600080fd5b600a5460065460408051633ddac95360e01b81526001600160a01b039283166004820152670de0b6b3a7640000602482015290516000939290921691633ddac95391604480820192602092909190829003018186803b15801561313757600080fd5b505afa92505050801561315c57506040513d602081101561315757600080fd5b505160015b6131975760405162461bcd60e51b81526004018080602001828103825260368152602001806143a86036913960400191505060405180910390fd5b71ffffffffffffffffffffffffffffffffffff169050610e9a565b6001546001600160a01b031633146131fb5760405162461bcd60e51b81526004018080602001828103825260248152602001806145186024913960400191505060405180910390fd5b600180546001600160a01b0319166001600160a01b0392909216919091179055565b6001546001600160a01b031633146132665760405162461bcd60e51b81526004018080602001828103825260248152602001806145186024913960400191505060405180910390fd5b600980546001600160a01b0319166001600160a01b0392909216919091179055565b61546081565b60185481565b6001546001600160a01b031633146132dd5760405162461bcd60e51b81526004018080602001828103825260248152602001806145186024913960400191505060405180910390fd5b6001600160a01b038416613321576040805162461bcd60e51b815260206004808301919091526024820152637a65726f60e01b604482015290519081900360640190fd5b610bb8831115613367576040805162461bcd60e51b815260206004820152600c60248201526b6f7574206f662072616e676560a01b604482015290519081900360640190fd5b6001600160a01b0382166133ab576040805162461bcd60e51b815260206004808301919091526024820152637a65726f60e01b604482015290519081900360640190fd5b6103e88111156133f1576040805162461bcd60e51b815260206004820152600c60248201526b6f7574206f662072616e676560a01b604482015290519081900360640190fd5b601e80546001600160a01b03199081166001600160a01b0396871617909155601f939093556020805490931691909316179055602155565b6001546001600160a01b031633146134725760405162461bcd60e51b81526004018080602001828103825260248152602001806145186024913960400191505060405180910390fd5b600a80546001600160a01b0319166001600160a01b0392909216919091179055565b60006134b96134b06154606003546138c790919063ffffffff16565b600254906139eb565b905090565b601c5481565b601b5481565b600a5460065460408051630d01142560e31b81526001600160a01b039283166004820152670de0b6b3a7640000602482015290516000939290921691636808a12891604480820192602092909190829003018186803b15801561313757600080fd5b6001546001600160a01b031633146135755760405162461bcd60e51b81526004018080602001828103825260248152602001806145186024913960400191505060405180910390fd5b6064811015801561358857506105dc8111155b6135c8576040805162461bcd60e51b815260206004820152600c60248201526b6f7574206f662072616e676560a01b604482015290519081900360640190fd5b601355565b6001546000906001600160a01b031633146136195760405162461bcd60e51b81526004018080602001828103825260248152602001806145186024913960400191505060405180910390fd5b60098360ff161061365b5760405162461bcd60e51b81526004018080602001828103825260298152602001806144ef6029913960400191505060405180910390fd5b600a821015801561366e57506103e88211155b6136b6576040805162461bcd60e51b81526020600482015260146024820152735f76616c75653a206f7574206f662072616e676560601b604482015290519081900360640190fd5b81600f8460ff1681548110612ba157fe5b60105481565b60145481565b6007546001600160a01b031681565b60135481565b6006546001600160a01b031681565b60155481565b600c5481565b6001546001600160a01b0316331461374c5760405162461bcd60e51b81526004018080602001828103825260248152602001806145186024913960400191505060405180910390fd5b60095460408051632ffaaa0960e01b8152600481018590526024810184905290516001600160a01b0390921691632ffaaa099160448082019260009290919082900301818387803b1580156137a057600080fd5b505af11580156137b4573d6000803e3d6000fd5b505050505050565b60045481565b6000806137cd6130d5565b9050600b548111610cae5760006137e2610d54565b90506000613801612710610c4a601454856138c790919063ffffffff16565b90506000600760009054906101000a90046001600160a01b03166001600160a01b03166318160ddd6040518163ffffffff1660e01b815260040160206040518083038186803b15801561385357600080fd5b505afa158015613867573d6000803e3d6000fd5b505050506040513d602081101561387d57600080fd5b50519050808211156138c0576000613895838361398e565b905060006138ad655af3107a4000610c4a84896138c7565b90506138bb60045482613a83565b965050505b5050505090565b6000826138d657506000612bb1565b828202828482816138e357fe5b04146139205760405162461bcd60e51b815260040180806020018281038252602181526020018061444d6021913960400191505060405180910390fd5b9392505050565b600080821161397d576040805162461bcd60e51b815260206004820152601a60248201527f536166654d6174683a206469766973696f6e206279207a65726f000000000000604482015290519081900360640190fd5b81838161398657fe5b049392505050565b6000828211156139e5576040805162461bcd60e51b815260206004820152601e60248201527f536166654d6174683a207375627472616374696f6e206f766572666c6f770000604482015290519081900360640190fd5b50900390565b600082820183811015613920576040805162461bcd60e51b815260206004820152601b60248201527f536166654d6174683a206164646974696f6e206f766572666c6f770000000000604482015290519081900360640190fd5b4360009081526020818152604080832032845290915290205460ff1690565b4360009081526020818152604080832033845290915290205460ff1690565b6000818310613a925781613920565b5090919050565b604080516001600160a01b038416602482015260448082018490528251808303909101815260649091019091526020810180516001600160e01b031663a9059cbb60e01b17905261187b908490613eec565b600a60009054906101000a90046001600160a01b03166001600160a01b031663a2e620456040518163ffffffff1660e01b8152600401600060405180830381600087803b158015613b3b57600080fd5b505af1925050508015613b4c575060015b50565b600654604080516340c10f1960e01b81523060048201526024810184905290516001600160a01b03909216916340c10f19916044808201926020929091908290030181600087803b158015613ba357600080fd5b505af1158015613bb7573d6000803e3d6000fd5b505050506040513d6020811015613bcd57600080fd5b5050601f5460009015613cb857613bf5612710610c4a601f54856138c790919063ffffffff16565b600654601e546040805163a9059cbb60e01b81526001600160a01b03928316600482015260248101859052905193945091169163a9059cbb916044808201926020929091908290030181600087803b158015613c5057600080fd5b505af1158015613c64573d6000803e3d6000fd5b505050506040513d6020811015613c7a57600080fd5b5050604080514281526020810183905281517fcb3f34aaa3445b461e6da5492dc89e5c257a59fa598131f3b6bbc97a3638e409929181900390910190a15b60215460009015613d9e57613cde612710610c4a602154866138c790919063ffffffff16565b600654602080546040805163a9059cbb60e01b81526001600160a01b03928316600482015260248101869052905194955092169263a9059cbb9260448082019392918290030181600087803b158015613d3657600080fd5b505af1158015613d4a573d6000803e3d6000fd5b505050506040513d6020811015613d6057600080fd5b5050604080514281526020810183905281517fdc8b715b18523e58b7fd0da53259dfa91efd91df4a854d94b136e3333a3b9395929181900390910190a15b613dac8161242d858561398e565b600954600654919450613dcd916001600160a01b0390811691166000613f9d565b600954600654613dea916001600160a01b03918216911685613f9d565b600954604080516397ffe1d760e01b81526004810186905290516001600160a01b03909216916397ffe1d79160248082019260009290919082900301818387803b158015613e3757600080fd5b505af1158015613e4b573d6000803e3d6000fd5b5050604080514281526020810187905281517f03ca7276ab7799bf73fb79d27ff0610cd7049574f2508ef8445162833d439aea9450908190039091019150a1505050565b600060085b600e8160ff1681548110613ea457fe5b90600052602060002001548310613ed957600f8160ff1681548110613ec557fe5b600091825260209091200154601055613ee2565b60001901613e94565b5050601054919050565b6060613f41826040518060400160405280602081526020017f5361666545524332303a206c6f772d6c6576656c2063616c6c206661696c6564815250856001600160a01b03166140b09092919063ffffffff16565b80519091501561187b57808060200190516020811015613f6057600080fd5b505161187b5760405162461bcd60e51b815260040180806020018281038252602a81526020018061453c602a913960400191505060405180910390fd5b801580614023575060408051636eb1769f60e11b81523060048201526001600160a01b03848116602483015291519185169163dd62ed3e91604480820192602092909190829003018186803b158015613ff557600080fd5b505afa158015614009573d6000803e3d6000fd5b505050506040513d602081101561401f57600080fd5b5051155b61405e5760405162461bcd60e51b81526004018080602001828103825260368152602001806145be6036913960400191505060405180910390fd5b604080516001600160a01b038416602482015260448082018490528251808303909101815260649091019091526020810180516001600160e01b031663095ea7b360e01b17905261187b908490613eec565b60606140bf84846000856140c7565b949350505050565b6060824710156141085760405162461bcd60e51b81526004018080602001828103825260268152602001806144026026913960400191505060405180910390fd5b61411185614223565b614162576040805162461bcd60e51b815260206004820152601d60248201527f416464726573733a2063616c6c20746f206e6f6e2d636f6e7472616374000000604482015290519081900360640190fd5b60006060866001600160a01b031685876040518082805190602001908083835b602083106141a15780518252601f199092019160209182019101614182565b6001836020036101000a03801982511681845116808217855250505050505090500191505060006040518083038185875af1925050503d8060008114614203576040519150601f19603f3d011682016040523d82523d6000602084013e614208565b606091505b5091509150614218828286614229565b979650505050505050565b3b151590565b60608315614238575081613920565b8251156142485782518084602001fd5b8160405162461bcd60e51b81526004018080602001828103825283818151815260200191508051906020019080838360005b8381101561429257818101518382015260200161427a565b50505050905090810190601f1680156142bf5780820380516001836020036101000a031916815260200191505b509250505060405180910390fd5b828054828255906000526020600020908101928215614317579160200282015b8281111561431757825182906affffffffffffffffffffff169055916020019190600101906142ed565b50610cae929150614364565b828054828255906000526020600020908101928215614317579160200282015b82811115614317578251829061ffff16905591602001919060010190614343565b5b80821115610cae576000815560010161436556fe54726561737572793a2063616e6e6f742072656465656d20626f6e64732077697468207a65726f20616d6f756e7454726561737572793a206661696c656420746f20636f6e73756c74204a4952412070726963652066726f6d20746865206f7261636c655f7072656d69756d5468726573686f6c6420697320686967686572207468616e20312e35416464726573733a20696e73756666696369656e742062616c616e636520666f722063616c6c54726561737572793a20747265617375727920686173206e6f206d6f726520627564676574536166654d6174683a206d756c7469706c69636174696f6e206f766572666c6f7754726561737572793a2063616e6e6f7420707572636861736520626f6e64732077697468207a65726f20616d6f756e745f6d696e74696e67466163746f72466f72506179696e67446562743a206f7574206f662072616e67655f6d6178537570706c79457870616e73696f6e50657263656e743a206f7574206f662072616e6765496e6465782068617320746f206265206c6f776572207468616e20636f756e74206f6620746965727354726561737572793a2063616c6c6572206973206e6f7420746865206f70657261746f725361666545524332303a204552433230206f7065726174696f6e20646964206e6f742073756363656564436f6e747261637447756172643a206f6e6520626c6f636b2c206f6e652066756e6374696f6e54726561737572793a206a6972615072696365206e6f7420656c696769626c6520666f7220626f6e642070757263686173655361666545524332303a20617070726f76652066726f6d206e6f6e2d7a65726f20746f206e6f6e2d7a65726f20616c6c6f77616e636554726561737572793a206e6f7420656e6f75676820626f6e64206c65667420746f2070757263686173655f7072656d69756d5468726573686f6c642065786365656473206a69726150726963654365696c696e675f626f6f747374726170537570706c79457870616e73696f6e50657263656e743a206f7574206f662072616e6765a264697066735822122011ac4c507512eba5b0eed0003e667f730b40b1d38c103bb4ce182a41b37fb15864736f6c634300060c0033",
  "devdoc": {
    "kind": "dev",
    "methods": {},
    "version": 1
  },
  "userdoc": {
    "kind": "user",
    "methods": {},
    "version": 1
  },
  "storageLayout": {
    "storage": [
      {
        "astId": 13417,
        "contract": "contracts/Treasury.sol:Treasury",
        "label": "_status",
        "offset": 0,
        "slot": "0",
        "type": "t_mapping(t_uint256,t_mapping(t_address,t_bool))"
      },
      {
        "astId": 5942,
        "contract": "contracts/Treasury.sol:Treasury",
        "label": "operator",
        "offset": 0,
        "slot": "1",
        "type": "t_address"
      },
      {
        "astId": 5945,
        "contract": "contracts/Treasury.sol:Treasury",
        "label": "initialized",
        "offset": 20,
        "slot": "1",
        "type": "t_bool"
      },
      {
        "astId": 5947,
        "contract": "contracts/Treasury.sol:Treasury",
        "label": "startTime",
        "offset": 0,
        "slot": "2",
        "type": "t_uint256"
      },
      {
        "astId": 5950,
        "contract": "contracts/Treasury.sol:Treasury",
        "label": "epoch",
        "offset": 0,
        "slot": "3",
        "type": "t_uint256"
      },
      {
        "astId": 5953,
        "contract": "contracts/Treasury.sol:Treasury",
        "label": "epochSupplyContractionLeft",
        "offset": 0,
        "slot": "4",
        "type": "t_uint256"
      },
      {
        "astId": 5965,
        "contract": "contracts/Treasury.sol:Treasury",
        "label": "excludedFromTotalSupply",
        "offset": 0,
        "slot": "5",
        "type": "t_array(t_address)dyn_storage"
      },
      {
        "astId": 5967,
        "contract": "contracts/Treasury.sol:Treasury",
        "label": "jira",
        "offset": 0,
        "slot": "6",
        "type": "t_address"
      },
      {
        "astId": 5969,
        "contract": "contracts/Treasury.sol:Treasury",
        "label": "bbond",
        "offset": 0,
        "slot": "7",
        "type": "t_address"
      },
      {
        "astId": 5971,
        "contract": "contracts/Treasury.sol:Treasury",
        "label": "bshare",
        "offset": 0,
        "slot": "8",
        "type": "t_address"
      },
      {
        "astId": 5973,
        "contract": "contracts/Treasury.sol:Treasury",
        "label": "boardroom",
        "offset": 0,
        "slot": "9",
        "type": "t_address"
      },
      {
        "astId": 5975,
        "contract": "contracts/Treasury.sol:Treasury",
        "label": "jiraOracle",
        "offset": 0,
        "slot": "10",
        "type": "t_address"
      },
      {
        "astId": 5977,
        "contract": "contracts/Treasury.sol:Treasury",
        "label": "jiraPriceOne",
        "offset": 0,
        "slot": "11",
        "type": "t_uint256"
      },
      {
        "astId": 5979,
        "contract": "contracts/Treasury.sol:Treasury",
        "label": "jiraPriceCeiling",
        "offset": 0,
        "slot": "12",
        "type": "t_uint256"
      },
      {
        "astId": 5981,
        "contract": "contracts/Treasury.sol:Treasury",
        "label": "seigniorageSaved",
        "offset": 0,
        "slot": "13",
        "type": "t_uint256"
      },
      {
        "astId": 5984,
        "contract": "contracts/Treasury.sol:Treasury",
        "label": "supplyTiers",
        "offset": 0,
        "slot": "14",
        "type": "t_array(t_uint256)dyn_storage"
      },
      {
        "astId": 5987,
        "contract": "contracts/Treasury.sol:Treasury",
        "label": "maxExpansionTiers",
        "offset": 0,
        "slot": "15",
        "type": "t_array(t_uint256)dyn_storage"
      },
      {
        "astId": 5989,
        "contract": "contracts/Treasury.sol:Treasury",
        "label": "maxSupplyExpansionPercent",
        "offset": 0,
        "slot": "16",
        "type": "t_uint256"
      },
      {
        "astId": 5991,
        "contract": "contracts/Treasury.sol:Treasury",
        "label": "bondDepletionFloorPercent",
        "offset": 0,
        "slot": "17",
        "type": "t_uint256"
      },
      {
        "astId": 5993,
        "contract": "contracts/Treasury.sol:Treasury",
        "label": "seigniorageExpansionFloorPercent",
        "offset": 0,
        "slot": "18",
        "type": "t_uint256"
      },
      {
        "astId": 5995,
        "contract": "contracts/Treasury.sol:Treasury",
        "label": "maxSupplyContractionPercent",
        "offset": 0,
        "slot": "19",
        "type": "t_uint256"
      },
      {
        "astId": 5997,
        "contract": "contracts/Treasury.sol:Treasury",
        "label": "maxDebtRatioPercent",
        "offset": 0,
        "slot": "20",
        "type": "t_uint256"
      },
      {
        "astId": 5999,
        "contract": "contracts/Treasury.sol:Treasury",
        "label": "bootstrapEpochs",
        "offset": 0,
        "slot": "21",
        "type": "t_uint256"
      },
      {
        "astId": 6001,
        "contract": "contracts/Treasury.sol:Treasury",
        "label": "bootstrapSupplyExpansionPercent",
        "offset": 0,
        "slot": "22",
        "type": "t_uint256"
      },
      {
        "astId": 6003,
        "contract": "contracts/Treasury.sol:Treasury",
        "label": "previousEpochJiraPrice",
        "offset": 0,
        "slot": "23",
        "type": "t_uint256"
      },
      {
        "astId": 6005,
        "contract": "contracts/Treasury.sol:Treasury",
        "label": "maxDiscountRate",
        "offset": 0,
        "slot": "24",
        "type": "t_uint256"
      },
      {
        "astId": 6007,
        "contract": "contracts/Treasury.sol:Treasury",
        "label": "maxPremiumRate",
        "offset": 0,
        "slot": "25",
        "type": "t_uint256"
      },
      {
        "astId": 6009,
        "contract": "contracts/Treasury.sol:Treasury",
        "label": "discountPercent",
        "offset": 0,
        "slot": "26",
        "type": "t_uint256"
      },
      {
        "astId": 6011,
        "contract": "contracts/Treasury.sol:Treasury",
        "label": "premiumThreshold",
        "offset": 0,
        "slot": "27",
        "type": "t_uint256"
      },
      {
        "astId": 6013,
        "contract": "contracts/Treasury.sol:Treasury",
        "label": "premiumPercent",
        "offset": 0,
        "slot": "28",
        "type": "t_uint256"
      },
      {
        "astId": 6015,
        "contract": "contracts/Treasury.sol:Treasury",
        "label": "mintingFactorForPayingDebt",
        "offset": 0,
        "slot": "29",
        "type": "t_uint256"
      },
      {
        "astId": 6017,
        "contract": "contracts/Treasury.sol:Treasury",
        "label": "daoFund",
        "offset": 0,
        "slot": "30",
        "type": "t_address"
      },
      {
        "astId": 6019,
        "contract": "contracts/Treasury.sol:Treasury",
        "label": "daoFundSharedPercent",
        "offset": 0,
        "slot": "31",
        "type": "t_uint256"
      },
      {
        "astId": 6021,
        "contract": "contracts/Treasury.sol:Treasury",
        "label": "devFund",
        "offset": 0,
        "slot": "32",
        "type": "t_address"
      },
      {
        "astId": 6023,
        "contract": "contracts/Treasury.sol:Treasury",
        "label": "devFundSharedPercent",
        "offset": 0,
        "slot": "33",
        "type": "t_uint256"
      }
    ],
    "types": {
      "t_address": {
        "encoding": "inplace",
        "label": "address",
        "numberOfBytes": "20"
      },
      "t_array(t_address)dyn_storage": {
        "base": "t_address",
        "encoding": "dynamic_array",
        "label": "address[]",
        "numberOfBytes": "32"
      },
      "t_array(t_uint256)dyn_storage": {
        "base": "t_uint256",
        "encoding": "dynamic_array",
        "label": "uint256[]",
        "numberOfBytes": "32"
      },
      "t_bool": {
        "encoding": "inplace",
        "label": "bool",
        "numberOfBytes": "1"
      },
      "t_mapping(t_address,t_bool)": {
        "encoding": "mapping",
        "key": "t_address",
        "label": "mapping(address => bool)",
        "numberOfBytes": "32",
        "value": "t_bool"
      },
      "t_mapping(t_uint256,t_mapping(t_address,t_bool))": {
        "encoding": "mapping",
        "key": "t_uint256",
        "label": "mapping(uint256 => mapping(address => bool))",
        "numberOfBytes": "32",
        "value": "t_mapping(t_address,t_bool)"
      },
      "t_uint256": {
        "encoding": "inplace",
        "label": "uint256",
        "numberOfBytes": "32"
      }
    }
  }
}